:020000040000FA
:100000000C9447050C946F050C946F050C946F05C8
:100010000C946F050C946F050C946F050C946F0590
:100020000C946F050C946F050C946F050C946F0580
:100030000C946F050C946F050C946F050C946F0570
:100040000C94B8160C946F050C9428170C94021796
:100050000C946F050C946F050C946F050C946F0550
:100060000C945A170C946F0500000000003E5B4F83
:100070005B3E3E6B4F6B3E1C3E7C3E1C183C7E3C08
:10008000181C577D571C1C5E7F5E1C00183C180016
:10009000FFE7C3E7FF0018241800FFE7DBE7FF30A6
:1000A000483A060E2629792926407F050507407F14
:1000B00005253F5A3CE73C5A7F3E1C1C08081C1C87
:1000C0003E7F14227F22145F5F005F5F06097F017D
:1000D0007F006689956A606060606094A2FFA29468
:1000E00008047E040810207E201008082A1C080836
:1000F0001C2A08081E101010100C1E0C1E0C303884
:100100003E3830060E3E0E06000000000000005F84
:1001100000000007000700147F147F14242A7F2AA0
:100120001223130864623649562050000807030062
:10013000001C2241000041221C002A1C7F1C2A08AE
:10014000083E080800807030000808080808000011
:1001500060600020100804023E5149453E00427F85
:10016000400072494949462141494D331814127FD4
:100170001027454545393C4A494931412111090774
:100180003649494936464949291E000014000000F5
:1001900040340000000814224114141414140041C7
:1001A00022140802015909063E415D594E7C121184
:1001B000127C7F494949363E414141227F414141BC
:1001C0003E7F494949417F090909013E4141517337
:1001D0007F0808087F00417F41002040413F017FA8
:1001E000081422417F404040407F021C027F7F0470
:1001F00008107F3E4141413E7F090909063E4151B9
:10020000215E7F09192946264949493203017F01A8
:10021000033F4040403F1F2040201F3F4038403FA9
:10022000631408146303047804036159494D4300BF
:100230007F4141410204081020004141417F0402F6
:10024000010204404040404000030708002054548D
:1002500078407F284444383844444428384444286B
:100260007F385454541800087E090218A4A49C78BE
:100270007F0804047800447D40002040403D007F1A
:100280001028440000417F40007C047804787C08FA
:100290000404783844444438FC18242418182424CE
:1002A00018FC7C08040408485454542404043F44B3
:1002B000243C4040207C1C2040201C3C4030403CE2
:1002C00044281028444C9090907C4464544C440042
:1002D00008364100000077000000413608000201A6
:1002E0000204023C2623263C1EA1A161123A404092
:1002F000207A38545455592155557941225454780F
:1003000042215554784020545579400C1E527212A7
:100310003955555559395454545939555454580030
:1003200000457C410002457D420001457C407D1234
:1003300011127DF0282528F07C5455450020545496
:100340007C547C0A097F4932494949323A44444441
:100350003A324A4848303A4141217A3A424020787C
:10036000009DA0A07D3D4242423D3D4040403D3C7D
:1003700024FF2424487E4943662B2FFC2F2BFF09A2
:1003800029F620C0887E0903205454794100004496
:100390007D413048484A32384040227A007A0A0A81
:1003A000727D0D19317D2629292F282629292926F4
:1003B00030484D4020380808080808080808382F39
:1003C00010C8ACBA2F102834FA00007B00000814C3
:1003D0002A142222142A14085500550055AA55AA99
:1003E00055AAFF55FF55FF000000FF00101010FF39
:1003F00000141414FF001010FF00FF1010F010F094
:10040000141414FC001414F700FF0000FF00FF1484
:1004100014F404FC141417101F10101F101F1414D0
:10042000141F00101010F0000000001F101010101A
:100430001F10101010F010000000FF10101010100E
:1004400010101010FF10000000FF140000FF00FF4C
:1004500000001F10170000FC04F4141417101714E8
:1004600014F404F40000FF00F7141414141414140A
:10047000F700F7141414171410101F101F1414147D
:10048000F4141010F010F000001F101F0000001FE7
:1004900014000000FC140000F010F01010FF10FF1A
:1004A000141414FF141010101F00000000F010FFAF
:1004B000FFFFFFFFF0F0F0F0F0FFFFFF0000000093
:1004C00000FFFF0F0F0F0F0F3844443844FC4A4A17
:1004D0004A347E02020606027E027E0263554941CC
:1004E000633844443C04407E201E2006027E020203
:1004F00099A5E7A5991C2A492A1C4C7201724C3017
:100500004A4D4D303048784830BC625A463D3E49ED
:100510004949007E0101017E2A2A2A2A2A44445F91
:10052000444440514A444040444A51400000FF0185
:1005300003E080FF000008086B6B08361236243693
:10054000060F090F060000181800000010100030F8
:1005500040FF0101001F01011E00191D1712003C80
:100560003C3C3C0000000000000103070F1F3F7FE0
:100570000080C0E0F0F8FCFE000000002300260030
:100580002900DB40A4A62EAF2000A1C8D300408DD7
:10059000AED580A800006000000000000000000050
:1005A0000000000000E0000000000000000000006B
:1005B00000000001E000000000000000000000005A
:1005C000000001F00000000000000000000000003A
:1005D0000003F00000000000000000000000000028
:1005E00007F000000000000000000000000000070D
:1005F000F8000000000000000000000000000FF8FC
:1006000000000003C0007E000001E0007F0FF80042
:10061000000003C000FE000001E000FFEFF8000052
:100620000003C000FE000001E000FFFFF800000032
:1006300003C000F00000000F007FFE7FC000000339
:10064000C000F00000000F003FFE7FF83FF1FBCF3D
:10065000FCFEF3BC3DEFE01FFE7FFF7FFBFFDFFEF4
:10066000FEFFBC3DEFE01FC6FFFF7FFBFFDFFEFE8E
:10067000FFBC3DEFE00FE3C7FE787BC3DE1EF0FF5B
:10068000BC3DEF0007FF87FC787BC3DE1EF0F83C23
:100690003DEF0001FFFFF0007BC3C01EF0F03C3DCA
:1006A000EF0001F37FE03FFBC3CFFEF0F03C3DEFF6
:1006B0000003E33F807FFBC3DFFEF0F03C3DEF0033
:1006C00007E73C00787BC3DE1EF0F03C3DEF0007FF
:1006D000FFBE00787BC3DE1EF0F03C3DEF0007FF5D
:1006E000FE00787BC3DE1EF0F03C3DEF000FFFFE06
:1006F000007FFBFFDFFEF0F03FFDEFE00FFFFF00AC
:100700007FFBFFDFFEF0F03FFDEFE00FF9FF003E63
:1007100079F9CF9EF0F01F3DE7E01FF1FF000000E8
:100720000000000000000000001F80FF007FFFFFAE
:10073000FFFFFFFFFFFFFFE01C007F007FFFFFFFC9
:10074000FEB46D888D18E000001F007FFFFFFFFEE4
:1007500095AD7DB577E000000F007FFFFFFFFEA5A0
:10076000AD9D8D19E0000006007FFFFFFFFEB5ADD7
:10077000EDB57EE0000000000001800000000000F8
:1007800000000000038000000000000000000007DF
:10079000C000000000000000000007C000000000D2
:1007A00000000000000FC00000000000000000007A
:1007B0001FE00000000000000000001FE00000003B
:1007C0000000000000003FE000000000000000000A
:1007D000003FF00000000000000000007FF000007B
:1007E00000000000001FF87FF00000000000000083
:1007F0003FFE7FF0000000000000003FFF7FF000A0
:100800000000000000001FFFFBE0000000000000EF
:10081000000FFFF9FFC00000000000000FFFF9FF0C
:10082000F800000000000007FFF1FFFF00000000DB
:10083000000003FC73FFFF80000000000001FE3F8A
:10084000FFFF80000000000000FF1E0FFF000000FF
:10085000000000007FFE1FFC000000000000003FC1
:10086000FFFFF8000000000000000FDFFFE00000C5
:1008700000000000001F19FFC00000000000000081
:100880003F3CFF00000000000000007E7CF80000FC
:100890000000000000007FFE7C000000000000005F
:1008A00000FFFFFC0000000000000000FFFFFE0052
:1008B00000000000000000FFFFFE0000000000003C
:1008C0000001FFEFFE0000000000000001FFCFFE6E
:1008D0000000000000000003FF07FE000000000011
:1008E000000003FC07FE0000000000000003F0030E
:1008F000FE00000000000000018000FE000000007B
:100900000000000000007E00000000000000000069
:10091000003E000000000000000000000C0000008D
:10092000000000078000FC000003C00000000780FA
:1009300001FC000003C0000000078001FC00000370
:10094000C0000000078001E00000001E000000075A
:100950008001E00000001E007FE3F79FF9FDE778CB
:100960007BDFC0FFF7FFBFFDFDFF787BDFC0FFF738
:10097000FFBFFDFDFF787BDFC0F0F787BC3DE1FFE7
:10098000787BDE00F0F787BC3DE1F0787BDE00008D
:10099000F787803DE1E0787BDE007FF7879FFDE110
:1009A000E0787BDE00FFF787BFFDE1E0787BDE00CB
:1009B000F0F787BC3DE1E0787BDE00F0F787BC3DD7
:1009C000E1E0787BDE00F0F787BC3DE1E0787BDE9C
:1009D00000FFF7FFBFFDE1E07FFBDFC0FFF7FFBFD8
:1009E000FDE1E07FFBDFC07CF3F39F3DE1E03E7B78
:1009F000CFC00000000000000000000000FFFFFF6B
:100A0000FFFFFFFFFFFFFFC0FFFFFFFFFD68DB11E0
:100A10001A31C0FFFFFFFFFD2B5AFB6AEFC0FFFF3B
:100A2000FFFFFD4B5B3B1A33C0FFFFFFFFFD6B5B1E
:100A3000DB6AFDC02200FF21000000000024002727
:100A4000002A0000000000250028002B0000000004
:100A5000080002010000030407000000000000007D
:100A60000004040404040404040202020202020357
:100A70000303030303010204081020408001020461
:100A80000810200102040810200079187B1F11248F
:100A90001FBECFEFD8E0DEBFCDBF11E0A0E0B1E0D8
:100AA000E2ECF6E402C005900D92AA3FB107D9F737
:100AB00023E0AAEFB1E001C01D92A13DB207E1F72A
:100AC00015E0C6E4D5E004C02197FE010E941D2276
:100AD000C534D107C9F70E9437190C9454230C94DC
:100AE00000000895CF92DF92EF92FF921F93CF9371
:100AF000DF93EC018E818C3009F44DC038F48B30DB
:100B0000E1F060E070E080EC9FE73DC0855182300D
:100B1000C0F71A81612F70E0762F662766277F77EE
:100B20008B81682B90E080E00E94ED202DEC3CEC66
:100B30004CEC5DE30E94A42148C06A8170E090E023
:100B400080E00E94ED206B017C01CB81C7FF0AC0D1
:100B5000AC019B0160E070E080E89FEB0E94DA1F2F
:100B60006B017C01CF706C2F70E090E080E00E9400
:100B7000EF202DEC3CEC4CEC5DE30E94A421A7019E
:100B800096010E94DB1FDF91CF911F91FF90EF90A4
:100B9000DF90CF9008951A81612F70E090E080E09F
:100BA0000E94ED206B017C016B816F7070E090E022
:100BB00080E00E94EF202DEC3CEC4CEC5DE30E94C9
:100BC000A421A70196010E94DB1F17FFDCCF9058DC
:100BD000DACF90E0FC01E35BF54F2491FC01EB5888
:100BE000F54F3491FC01EF59F54FE491EE23C9F034
:100BF000222339F0233001F1A8F4213019F12230F9
:100C000029F1F0E0EE0FFF1FED5BF54FA591B491D8
:100C10008FB7F894EC91611126C030953E233C9338
:100C20008FBF08952730A9F02830C9F0243049F744
:100C3000809180008F7D03C0809180008F778093AA
:100C40008000DFCF84B58F7784BDDBCF84B58F7D07
:100C5000FBCF8091B0008F778093B000D2CF80918E
:100C6000B0008F7DF9CF3E2BDACFCF93DF9390E0AA
:100C7000FC01EB58F54F24918F59954FFC0184915D
:100C80008823D1F090E0880F991FFC01E75CF54FB5
:100C9000A591B491FC01ED5BF54FC591D491623003
:100CA00071F49FB7F8943C91822F809583238C93A5
:100CB000E8812E2B28839FBFDF91CF9108958FB7B6
:100CC000F894EC912E2B2C938FBFF6CF8E5080642E
:100CD00080937C0080917A00806480937A00809178
:100CE0007A0086FDFCCF809178009091790008957C
:100CF0003FB7F8948091B2029091B302A091B402F0
:100D0000B091B50226B5A89B05C02F3F19F00196FA
:100D1000A11DB11D3FBFBA2FA92F982F8827BC0155
:100D2000CD01620F711D811D911D42E0660F771F7D
:100D3000881F991F4A95D1F708958F929F92AF927D
:100D4000BF92CF92DF92EF92FF924B015C010E9423
:100D500078066B017C010E9478066C197D098E096A
:100D60009F09683E734081059105A8F321E0821A2E
:100D70009108A108B10888EEC80E83E0D81EE11CD6
:100D8000F11C81149104A104B10429F7FF90EF90A4
:100D9000DF90CF90BF90AF909F908F90089508956F
:100DA0000895AF92BF92CF92DF92EF92FF920F938E
:100DB0001F93CF93DF936C017B018B01040F151FF1
:100DC000EB015E01AE18BF08C017D10759F0699159
:100DD000D601ED91FC910190F081E02DC6010995BD
:100DE000892B79F7C501DF91CF911F910F91FF906A
:100DF000EF90DF90CF90BF90AF900895FC01538D9E
:100E0000448D252F30E0842F90E0821B930B5417E4
:100E100010F0CF96089501970895FC01918D828D71
:100E2000981761F0A28DAE0FBF2FB11D5D968C910A
:100E3000928D9F5F9F73928F90E008958FEF9FEF49
:100E40000895FC01918D828D981731F0828DE80F05
:100E5000F11D858D90E008958FEF9FEF0895FC01BF
:100E6000918D228D892F90E0805C9F4F821B91098C
:100E70008F73992708958EEB92E00E942F0721E04F
:100E8000892B09F420E0822F089580E090E0892BDF
:100E900029F00E943B0781110C9400000895FC0189
:100EA000A48DA80FB92FB11DA35ABF4F2C91848DCB
:100EB00090E001968F739927848FA689B7892C9328
:100EC000A089B1898C91837080648C93938D848D7B
:100ED000981306C00288F389E02D80818F7D80837E
:100EE0000895EF92FF920F931F93CF93DF93EC013E
:100EF00081E0888F9B8D8C8D98131AC0E889F989C1
:100F0000808185FF15C09FB7F894EE89FF896083C3
:100F1000E889F98980818370806480839FBF81E044
:100F200090E0DF91CF911F910F91FF90EF90089586
:100F3000F62E0B8D10E00F5F1F4F0F731127E02E61
:100F40008C8D8E110CC00FB607FCFACFE889F98999
:100F5000808185FFF5CFCE010E944F07F1CFEB8D49
:100F6000EC0FFD2FF11DE35AFF4FF0829FB7F8946D
:100F70000B8FEA89FB8980818062CFCFCF93DF938B
:100F8000EC01888D8823B9F0AA89BB89E889F989A1
:100F90008C9185FD03C0808186FD0DC00FB607FCD6
:100FA000F7CF8C9185FFF2CF808185FFEDCFCE0109
:100FB0000E944F07E9CFDF91CF910895CF92DF9242
:100FC000EF92FF92CF93DF93DC011796CC911797A6
:100FD000D0E06111DC2F18962C91189730E0220F89
:100FE000331F28583A4F50E040E0F9018591949121
:100FF000FC01F080BA0190E080E0EF2DEC23ED13CE
:1010000010C04F5F5F4F1D96CD90DD90ED90FC902E
:1010100050976C157D058E059F0538F36FEF7FEFB8
:10102000CB01DF91CF91FF90EF90DF90CF900895AB
:101030008F929F92AF92BF92CF92DF92EF92FF92E8
:101040000F931F93CF93DF93CDB7DEB7C054D1403A
:101050000FB6F894DEBF0FBECDBF2FB7F894409106
:10106000B6025091B7026091B8027091B9022FBFD9
:10107000FC0101851285238534856A017B01C01A34
:10108000D10AE20AF30A97018601003D17402105C3
:101090003105B0F4FC018189C05CDE4F0FB6F894D5
:1010A000DEBF0FBECDBFDF91CF911F910F91FF909B
:1010B000EF90DF90CF90BF90AF909F908F9008956A
:1010C0008C01FC01418752876387748714821382E5
:1010D00012821182108262E085810E94350661E0F1
:1010E00070E080E090E00E949D0661E0F80185815B
:1010F0000E94350660E0F80185810E94E905F8014B
:1011000086818551823028F58BE291E10197F1F7D4
:1011100062E0F80185810E943506F801828990E03D
:101120008230910538F0880F991F880F991F059715
:101130000197F1F7F89460E0C8010E94DE076F3F65
:101140007F4F8F4F9F4F61F4F801118A789480E0B0
:10115000A3CF64E170E080E090E00E949D06D8CFCC
:1011600061E0C8010E94DE076F3F7F4F8F4F9F4FA6
:1011700059F3CE0101967C015E019FEBA91A9EEF07
:10118000B90A670160E0C8010E94DE07F6016083CA
:1011900071838283938361E0C8010E94DE07F601B8
:1011A0006483758386839783F8E0CF0ED11CCA14BD
:1011B000DB0441F7789430E020E0F70180809180F3
:1011C000A280B3804481558166817781FFEF8F16BD
:1011D0009F06AF06BF0631F04F3F8FEF58076807F5
:1011E000780719F4F801118AB2CFF90183E0F59577
:1011F000E7958A95E1F7E00FF11F8081880F84164B
:101200009506A606B706F0F080832F5F3F4FF8E003
:10121000EF0EF11C2832310581F6F801448120815E
:101220008181280F3327331F8281280F311D83814D
:10123000820F932F911D99274817190699F681E07F
:10124000818B2ACF8160E0CFCF92DF92EF92FF9225
:10125000CF93DF93EC010E941808882341F08E8120
:101260008B3028F08D3040F08551823030F160E0D5
:1012700070E080EC9FE71AC0698170E090E080E048
:101280000E94EF202DEC3CEC4CEC5DE30E94A4218D
:101290006B017C01688170E090E080E00E94EF20AB
:1012A0009B01AC01C701B6010E94DB1FDF91CF910A
:1012B000FF90EF90DF90CF90089568817981762735
:1012C0006727762790E080E00E94ED202DEC3CEC33
:1012D0004CEC5DE30E94A421E9CFEF92FF920F93C3
:1012E0001F93CF93DF93EC01EC80FD806E157F059B
:1012F0000CF070C057FF04C0240F351F50E040E0D1
:101300008E819F81FA01E20FF31F8E179F071CF455
:101310009C01241B350B121613060CF05BC0922F98
:10132000842F8695869586958E9DD0018F9DB00DD4
:1013300011246A0F7B1FAF8DB8A1A60FB71F47708E
:1013400049F188E0841B482F682F70E0FB01E059C9
:10135000FA4FE491281708F063C0621B71092FEF60
:1013600030E002C0359527956A95E2F7E223013017
:10137000110539F0B0F10230110561F58C91E827C3
:1013800002C08C91E82BEC93941720F12C813D81C5
:10139000A20FB31FE92FE41BE83078F002301105EB
:1013A00021F58E2F9C9190959C932C813D81A20FCD
:1013B000B31F88508830B0F7E770EE2359F0F0E0A3
:1013C000E859FA4FE49101301105F9F010F10230BB
:1013D000110519F1DF91CF911F910F91FF90EF90BF
:1013E0000895E0958C91E823CECF81E00115110599
:1013F00009F480E081959E2F8C932C813D81A20F72
:10140000B31F98509830C0F7D7CF8C91E82BEC934E
:10141000E1CFE0958C91E823FACF8C91E827F7CFC4
:101420000130110509F4ADCFE0F20230110509F4E5
:10143000A5CFAE0DBF1DAECF0F931F93CF93DF93FC
:1014400077FF04C0260F371F70E060E0DC011496C0
:10145000CD91DC91FB01E20FF31FCE17DF071CF4E7
:101460009E01261B370B121613064CF5FA0157FD89
:101470003796A3E0F595E795AA95E1F7EC9FD001A3
:10148000ED9FB00DFC9FB00D11246A0F7B1FDC0196
:101490005F96ED91FC91E60FF71F4770552781E0AD
:1014A00090E001C0880F4A95EAF7482F01301105F6
:1014B00059F0A8F02E0F3F1F02301105E1F0DF9127
:1014C000CF911F910F9108952E0F3F1FE217F30741
:1014D000B1F38191DF011197842B8C93F7CF809525
:1014E0002E0F3F1FE217F30751F39191DF01119780
:1014F00098239C93F7CFE217F30709F38191DF015B
:10150000119784278C93F7CF0F931F93FA01DC0177
:1015100056964C9156974230E9F04330A1F1413054
:1015200061F514964D915C91DA01AE1BBF0BFD0184
:10153000E21BF30B77FD0BC0DC0116964D915C911D
:101540006417750724F4AB01BF010E941C0A1F91A8
:101550000F91089514964D915C91DA01A61BB70B7B
:10156000BD0161507109DC0116964D915C91DA0163
:10157000AE1BBF0BFD01E21BF30B77FDE8CFAF0104
:101580000E946D09E4CF16964D915C91DA01A61B7D
:10159000B70BBD0161507109CDCF0F931F93FA01B5
:1015A000DC0156964C9156974230A9F0433091F1A8
:1015B000413019F514964D915C91DA01AE1BBF0BC9
:1015C000FD013197F7FD04C0AB01BF010E946D0919
:1015D0001F910F91089514964D915C91DA01A61B0D
:1015E000B70BBD01DC0116964D915C91DA01AE1B83
:1015F000BF0BFD013197621B730BF7FDE9CFDC01D7
:1016000016964D915C91E417F50714F7AF010E940F
:101610001C0ADECF16964D915C91DA01A61BB70B22
:10162000BD01621B730BCECFFC0177FD64C08085CA
:101630009185681779070CF05EC057FD5CC0828504
:101640009385481759070CF056C086898230B1F04F
:10165000833029F1813041F484819581841B950B7D
:10166000AB01BC01615071092130310509F108F469
:1016700043C02230310509F463C008958481958107
:10168000DC01A61BB70BBD016150710986819781F2
:10169000DC01A41BB50BAD0141505109E5CF86819A
:1016A0009781861B970BBA01AC0141505109DCCFE1
:1016B000CA0157FD0796A3E095958795AA95E1F78E
:1016C000A481B5818A9F90018B9F300D9A9F300D28
:1016D0001124620F731F078CF0A1E02DE60FF71F96
:1016E0004770552721E030E001C0220F4A95EAF704
:1016F0008081822B80830895CA0157FD079633E0CD
:10170000959587953A95E1F7A481B5818A9F9001D7
:101710008B9F300D9A9F300D1124620F731F078C21
:10172000F0A1E02DE60FF71F4770552781E090E00C
:1017300001C0880F4A95EAF7809590818923DACF16
:10174000CA0157FD079623E0959587952A95E1F7FD
:10175000A481B5818A9F90018B9F300D9A9F300D97
:101760001124620F731F078CF0A1E02DE60FF71F05
:101770004770552721E030E001C0220F4A95EAF773
:1017800080818227B7CF08958EBD00000DB407FE7B
:10179000FDCF8EB508958CBD9DBD08950895FC01C3
:1017A0006370668B8481958126813781613039F041
:1017B000633029F0918780873387228708953187A6
:1017C00020879387828708952F923F924F925F924E
:1017D0006F927F928F929F92AF92BF92CF92DF9241
:1017E000EF92FF920F931F93CF93DF93CDB7DEB7A6
:1017F0006A970FB6F894DEBF0FBECDBF9A8F898F60
:101800007A8369834A01D22E18870F833701BC2C53
:10181000DC0159962D913C915A972115310509F01B
:1018200015C118968D919C911997681779070CF03E
:10183000D7C11A968D919C91481759070CF0D0C1C9
:101840004C2C512CB6E0CB9E600D711D11247C8771
:101850006B87161617060CF0C3C1EA2DF0E0FA8765
:10186000E98793E0EE0FFF1F9A95E1F7F88BEF877A
:10187000CF01840F951F181619060CF0B1C1A98D60
:10188000BA8D58968C91811104C0BFEABD1508F439
:10189000D394A98DBA8DED91FC9111970284F385B3
:1018A000E02DCD010995B5E0DB9EC0011124E98151
:1018B000FA81FC83EB83312C212C9C0128593F4F6A
:1018C000388F2F8B4A2D50E05E8B4D8BEF89F88D32
:1018D000E20DF31D44919E828D82D12CC12C698131
:1018E0007A81620D731D7A8B698B842F90E09C8BBB
:1018F0008B8BE98DFA8DA081B18140FF82C0F1E030
:10190000BF126FC0AF126DC01C96ED91FC912F817C
:101910003885A4014C0D5D1D69897A89898D9A8D60
:101920000995EB89FC89F595E7954E2F5FEFC51A70
:10193000D50A6D817E818D899E89680F791F7E838E
:101940006D8398E0C916D10481F6AFEF2A1A3A0ADE
:10195000EB81FC81E40DF51DFC83EB83F5E02F1694
:10196000310409F0B3CF2F81388526153705B9F03A
:10197000A98DBA8DED91FC91B1E0BB1257C0AB12AD
:1019800055C069817A816B5F7F4F0088F189E02DB6
:10199000830128E030E0A401898D9A8D0995A98DF5
:1019A000BA8DED91FC9111970688F789E02DCD0154
:1019B0006A960FB6F894DEBF0FBECDBFDF91CF9110
:1019C0001F910F91FF90EF90DF90CF90BF90AF905D
:1019D0009F908F907F906F905F904F903F902F904F
:1019E00009941E96ED91FC91EF80F88409851A8583
:1019F00092014D815E816B817C81898D9A8D0995E3
:101A000090CF2F8138852615370509F48ACF31E02C
:101A1000B31207C0A31205C01C96ED91FC9193016F
:101A200078CF1E96ED91FC917301E0CF6B857C859C
:101A3000641975090684F785E02D73010F851889EF
:101A40009201A401898D9A8D0995A9CFF901349647
:101A50009491329745915491D91AB7E0DB9E400D8D
:101A6000511D1124F901259134913C8B2B8BFA01E6
:101A700025903490FA013296749031963491398BD6
:101A8000329664903196449041E04C1518F04A1516
:101A900008F07FC0662D062C000C770B7C836B83CF
:101AA000842D042C000C990B9E838D83A98DBA8DF7
:101AB000ED91FC9111970284F385E02DCD010995FC
:101AC000512CD12CC12CEA2DF0E0FA87E9872B2D7F
:101AD00030E03C872B87A401440D511D47FC5A95EB
:101AE000588F4F8B69817A81660D711D67FC7A95DD
:101AF0007E876D877989C71608F051CF2C2D30E08D
:101B00004D815E81420F531FA985BA854A9FC0014E
:101B10004B9F900D5A9F900D1124FC01E80DF91D6B
:101B2000F88BEF87852D612C4F89588D420F531FFD
:101B30005E8B4D8B671408F050C044244394480ECC
:101B4000877041F4C1010196EB89FC89E20DF31D18
:101B5000D4901C01D7FE19C0A98DBA8DED91FC91CE
:101B6000662D70E0B1E0BB1219C0AB1217C02D8515
:101B70003E85620F731F0484F585E02D2F81388523
:101B80004D895E89898D9A8D0995DD0C6394842D2C
:101B9000D1CF1E821D821C821B8288CF4B815C812B
:101BA000640F751FAB85BC856A9FC0016B9F900D4C
:101BB0007A9F900D112469817A81680F791F0684BC
:101BC000F785E02DEF80F88409851A859D014F8502
:101BD0005889898D9A8D0995D8CF570CC3948ACF8F
:101BE0006A960FB6F894DEBF0FBECDBFDF91CF91DE
:101BF0001F910F91FF90EF90DF90CF90BF90AF902B
:101C00009F908F907F906F905F904F903F902F901C
:101C100008958F929F92AF92CF92EF92FF920F937F
:101C20001F93CF93DF93EC01262F898D9A8D009718
:101C300009F051C06A30D1F41D861C868D8948E0B8
:101C4000849F900111248E859F85820F931F9F870B
:101C50008E8781E090E0DF91CF911F910F91FF90EF
:101C6000EF90CF90AF909F908F9008956D3089F353
:101C7000CC88AD888F898823C1F08C859D8536E01E
:101C8000C39E800D911D1124488559854817590719
:101C900064F44E855F851D861C8638E0A39EC001D6
:101CA0001124840F951F9F878E87EA88FB880889F7
:101CB00019894E855F856C857D85CE010E94E40B78
:101CC0002C898C859D8546E0249F800D911D1124D3
:101CD0009D878C87BECF6A3069F41D861C86FC0107
:101CE0003896E4912D898E859F85E29F800D911D08
:101CF0001124ADCF6D3009F4ACCFFC013496349192
:101D0000631708F4A6CF3296E491E61708F4A1CF42
:101D1000FC01329685909490462F431B342F47E068
:101D2000349F800C911C1124F40132963491319629
:101D3000E4913323A9F1EE2399F1CC88F40135968F
:101D4000E491AD884F89442301F10E2E000CFF0B66
:101D5000E30FF11DCE9EA001CF9E500D11246C8586
:101D60007D85460F571F68857985641775076CF464
:101D70004E855F851D861C86FC013896E491AE9EDB
:101D8000400D511D11245F874E87EA88FB88088922
:101D900019894E855F856C857D85CE010E94E40B97
:101DA000F4013496E4912C898C859D85E29F800D09
:101DB000911D11248DCF6F927F928F929F92AF923F
:101DC000BF92CF92DF92EF92FF920F931F93CF9328
:101DD000DF93EC016B015A0139014801E881F98177
:101DE0000284F385E02D0995E881F9810288F38961
:101DF000E02D87019301A501B601CE010995A5014A
:101E0000480D591D41505109E881F9810288F38933
:101E1000E02D9301B601CE010995E881F981008892
:101E2000F189E02D9401A501B601CE010995C60CFA
:101E3000D71CB60161507109E881F9810088F189E8
:101E4000E02D9401A501CE010995E881F98106886C
:101E5000F789E02DCE01DF91CF911F910F91FF9077
:101E6000EF90DF90CF90BF90AF909F908F907F903A
:101E70006F9009946F927F928F929F92AF92BF92D0
:101E8000CF92DF92EF92FF920F931F93CF93DF9346
:101E90005C01EB016A01490138018701DC01ED9128
:101EA000FC916217730719F5641675062CF0962DD0
:101EB000872D3A01C92ED82E9601261937092F5F92
:101EC0003F4F048CF58DE02DA301BE01C50109959E
:101ED000DF91CF911F910F91FF90EF90DF90CF9006
:101EE000BF90AF909F908F907F906F900895461510
:101EF000570591F42617370724F0892D4B01C22F7F
:101F0000D82F9E01281939092F5F3F4F068CF78D76
:101F1000E02DA601B401DACF0284F385E02D099506
:101F2000D501ED91FC910488F589E02D83019401A0
:101F3000A601BE01C5010995D501ED91FC91068868
:101F4000F789E02DC501DF91CF911F910F91FF908F
:101F5000EF90DF90CF90BF90AF909F908F907F9049
:101F60006F900994EF92FF920F931F93DC011A96E2
:101F70000D911C911B9718962D913C911997ED91FD
:101F8000FC9100A0F1A1E02D7B0150E040E070E069
:101F900060E009951F910F91FF90EF9008954F9287
:101FA0005F926F927F928F929F92AF92BF92CF92E9
:101FB000DF92EF92FF920F931F93CF93DF936C0109
:101FC0002B015A0139014801DC01ED91FC91028499
:101FD000F385E02D0995E201640C751CD601ED91A5
:101FE000FC91C615D7055CF40088F189E02D8701C6
:101FF0009401A501BE01C60109952196EFCF06887F
:10200000F789E02DC601DF91CF911F910F91FF90CD
:10201000EF90DF90CF90BF90AF909F908F907F9088
:102020006F905F904F9009948F929F92AF92BF9262
:10203000CF92DF92EF92FF920F931F93CF93DF9394
:10204000EC015B014A016901E881F9810284F385B1
:10205000E02D099595012C0D3D1D21503109E88198
:10206000F9810488F589E02D78018401A401B50186
:10207000CE010995E881F9810688F789E02DCE0126
:10208000DF91CF911F910F91FF90EF90DF90CF9054
:10209000BF90AF909F908F9009948F929F92AF9234
:1020A000BF92CF92DF92EF92FF920F931F93CF9345
:1020B000DF93EC015B014A0169017801E881F98154
:1020C0000284F385E02D0995C80CD91C86010150C6
:1020D0001109E881F9810488F589E02D9501A401B1
:1020E000B501CE010995E881F9810688F789E02DCF
:1020F000CE01DF91CF911F910F91FF90EF90DF9074
:10210000CF90BF90AF909F908F900994EF92FF92E5
:102110000F931F93DC01ED91FC9100A0F1A1E02D44
:1021200009951F910F91FF90EF9008950F931F93C2
:10213000DC01ED91FC91068CF78DE02D09951F9146
:102140000F9108950F931F93DC01ED91FC91048C86
:10215000F58DE02D09951F910F910895DC01ED910A
:10216000FC910084F185E02D09943F924F925F929B
:102170006F927F928F929F92AF92BF92CF92DF9297
:10218000EF92FF920F931F93CF93DF935C017B013C
:102190004A016901390187E0680E711C93E075946A
:1021A00067949A95E1F72B01400E511E10E000E074
:1021B000312CD0E0C0E0CE0187709927330C892BF9
:1021C00059F4FE0183E0F595E7958A95E1F7E00F74
:1021D000F11FE80DF91D349037FE0AC021E030E010
:1021E000A701B5016C0F7D1F8DE893E00E94AE1032
:1021F0002196CC16DD06F9F68FEFE81AF80A060DDF
:10220000171DE414F504A9F6DF91CF911F910F91EA
:10221000FF90EF90DF90CF90BF90AF909F908F9006
:102220007F906F905F904F903F9008952F923F92D4
:102230004F925F926F927F928F929F92AF92BF92D6
:10224000CF92DF92EF92FF920F931F93CF93DF9382
:1022500000D000D000D0CDB7DEB73C016A013E838C
:102260002D83FC82EB825801A41AB50AB7FE03C085
:10227000B194A194B1088D809E80861A970A97FE2A
:1022800003C09194819491088A149B045CF0902F70
:10229000812F0D811E819D838E839C2D8D2D6B0141
:1022A000692F782F0C151D055CF09D818E817E8332
:1022B0006D83692F782F902F812F8601C92ED82EFC
:1022C0001601201A310A2B012D813E81421A530A30
:1022D00057FE03C0519441945108710137FE03C069
:1022E0003FEFE31AF30AF594E7948D819E818617F8
:1022F00097075CF5A1E0B0E0BA83A983C016D106C8
:102300004CF1D301ED91FC910484F585E02D2B81F6
:102310003C81A8016D817E818A149B041CF04D8153
:102320005E81B801C3010995E418F508F7FE0AC0FB
:102330002D813E8189819A81280F391F3E832D830B
:10234000E20CF31C0F5F1F4FD9CF2FEF3FEF3A8303
:102350002983D4CF26960FB6F894DEBF0FBECDBF2B
:10236000DF91CF911F910F91FF90EF90DF90CF9071
:10237000BF90AF909F908F907F906F905F904F90A5
:102380003F902F900895089520916002260F3327E3
:10239000331F21323105ECF420918402FC0190E0DE
:1023A00080E0243069F082E00895A09160022191DC
:1023B000AC01405C5D4FA40FB52FB11D2C9301966D
:1023C000861798F380916002680F6093600280E046
:1023D000089581E008951092840281E0809386023E
:1023E0001092850261E082E10E94E90561E083E1EB
:1023F0000E94E905E9EBF0E080818E7F8083808197
:102400008D7F808388E48093B80085E48093BC004E
:102410000895CF93DF9391E090933F028823B9F022
:10242000C091B800D091BA008091BC008A7B8093A3
:10243000BC0060E082E10E94E90560E083E10E9467
:10244000E9050E94EB11D093BA00C093B800DF9168
:10245000CF910895E091B0028091AF02E81730F477
:10246000F0E0E65EFD4F808190E008958FEF9FEFF2
:1024700008959091B0028091AF022FEF3FEF98172F
:1024800048F4E92FF0E0E65EFD4F208130E09F5FE9
:102490009093B002C90108958091AF029091B0026B
:1024A000891B990B0895CF92DF92EF92FF920F93C1
:1024B0001F93CF93DF937C01CB018A012091BD0252
:1024C000222389F0EB016B01C40ED51ECC15DD056E
:1024D00069F06991D701ED91FC910190F081E02DB7
:1024E000C7010995F3CF642F0E94C411C801DF9181
:1024F000CF911F910F91FF90EF90DF90CF900895B3
:10250000CF93DF931F92CDB7DEB769832091BD02D1
:102510002223F9F02091BA02203258F021E030E075
:10252000FC013383228390E080E00F90DF91CF9114
:1025300008958091BB02E82FF0E0E650FE4F9981AC
:1025400090838F5F8093BB028093BA0281E090E01A
:10255000ECCF61E0CE0101960E94C411F7CFCF927B
:10256000DF92EF92FF920F931F93CF93DF93D0915F
:10257000BA0281E0D13208F09CC0C091BC020E9436
:1025800078066B017C018091840281116CC082E02D
:102590008093840281E0809386028FEF8093830290
:1025A0001092A802D093A702AAEFB1E0E7E8F2E008
:1025B00080E0D8138DC01092A9028091A902CC0F9F
:1025C000C82BC093A90280918502813009F084C094
:1025D000109285020E9478066B017C018091A9020D
:1025E0008093BB0080913B0290913C02A0913D0200
:1025F000B0913E02892B8A2B8B2BA1F00E9478068A
:1026000000913B0210913C0220913D0230913E022C
:102610006C197D098E099F090617170728073907C6
:1026200008F442C08091BC0083FDD8CF85EC809334
:10263000BC000E9478066B017C018091840282308C
:1026400009F44CC0809183028F3F09F469C08091E6
:102650008302803209F466C080918302803309F4DA
:1026600063C084E026C080913B0290913C02A0911F
:102670003D02B0913E02892B8A2B8B2B09F483CF2C
:102680000E94780600913B0210913C0220913D028D
:1026900030913E026C197D098E099F0906171707B4
:1026A0002807390708F06FCF80913A020E9409127B
:1026B00085E01092BB021092BA021092BD02DF9127
:1026C000CF911F910F91FF90EF90DF90CF900895E1
:1026D0009D9191938F5F6DCF85EEA9CF80913B0245
:1026E00090913C02A0913D02B0913E02892B8A2B31
:1026F0008B2B09F4A2CF0E94780600913B02109127
:102700003C0220913D0230913E026C197D098E09F8
:102710009F09061717072807390708F08ECFC4CF7F
:1027200080E0C7CF82E0C5CF83E0C3CFEF92FF92B6
:102730000F931F93CF93DF937C01C62F8091AA0341
:102740009091AB03009709F459C02091AE0331E09A
:102750003093BD022093BC021092BB021092BA02C9
:10276000DC01ED91FC910190F081E02D60E0099594
:102770008701EE24E394F12CD1E0C1508091AA03AB
:102780009091AB03CF3F91F1B0E2EB16F104D8F09A
:102790000E94AF128091AA039091AB032091AE03E7
:1027A000D093BD022093BC021092BB021092BA02D9
:1027B000DC01ED91FC910190F081E02D60E0099544
:1027C000EE24E394F12C8091AA039091AB03F801DD
:1027D0006491DC01ED91FC910190F081E02D09956F
:1027E000BFEFEB1AFB0A0F5F1F4FC7CFDF91CF91EF
:1027F0001F910F91FF90EF900C94AF12E091BA03EC
:10280000F091BB0390818091C003809589238083E0
:102810008701C15008F438C0F80184912091A803C1
:102820003091A903232B29F00E94C40B0F5F1F4F87
:10283000F0CF28E030E040E8E091B603F091B70334
:102840009091BE03582F5423D9F05081952B90833B
:10285000E091B803F091B90390815091BF03952B9B
:102860009083E091B803F091B90350819091BF0338
:10287000909595239083469521503109E9F6D6CF5E
:10288000508190959523E3CFDF91CF911F910F91C8
:10289000FF90EF9008951F93CF93DF93EC018D8D00
:1028A0009E8D009721F1162F29A131E03093BD02B2
:1028B0002093BC021092BB021092BA02DC01ED918F
:1028C000FC910190F081E02D60E009958D8D9E8D49
:1028D000DC01ED91FC910190F081E02D612F0995D3
:1028E0008D8D9E8DDF91CF911F910C94AF12ADA570
:1028F000BEA59C918BA9809589238C938B8D9C8DF3
:10290000892B31F0862FDF91CF911F910C94C40B4E
:1029100028E030E080E8A9A5BAA599A9462F482368
:10292000C1F04C91942B9C93ABA5BCA59C914AA95A
:10293000942B9C93ABA5BCA54C919AA990959423FC
:102940009C9386952150310931F7DF91CF911F91EA
:1029500008954C9190959423E6CF1F93CF93DF93E6
:10296000EC01162F8D8D9E8D892BB1F12DA93EA9DD
:102970004FA958AD60E074E284EF90E00E94A91F77
:1029800020513109410951095695479537952795A9
:102990002093B80066EA111167EACE010E944B1439
:1029A0008D8D9E8D892B41F129AD3AAD4BAD5CAD3E
:1029B00060E074E284EF90E00E94A91F2051310989
:1029C0004109510956954795379527952093B800A9
:1029D000DF91CF911F9108958B8D9C8D892B21F0D4
:1029E0008EAD9FAD0E94CB0BEFA5F8A990818CA96D
:1029F000809589238083CECFEFA5F8A980819CA9FB
:102A0000892B8083E5CF90E080E0089520919303A7
:102A100030919403C901079697FD079623E0959599
:102A200087952A95E1F72091910330919203829F37
:102A3000A001839F500D929F500D112470E060E023
:102A40008091AC039091AD030C944D230E944823D8
:102A5000FB0101900020E9F73197AF01461B570BAE
:102A6000DC01ED91FC910280F381E02D09948F92BD
:102A70009F92AF92BF92EF92FF920F931F93CF93CB
:102A8000DF93CDB7DEB7A1970FB6F894DEBF0FBEC8
:102A9000CDBF7C01FA01CB0119A2223008F42AE053
:102AA0008E010F5D1F4F822E912CB12CA12CBF01E6
:102AB000A50194010E94A91FF901CA016A300CF511
:102AC000605DD8016E938D01232B242B252B79F784
:102AD00090E080E0109721F0BD01C7010E94281509
:102AE000A1960FB6F894DEBF0FBECDBFDF91CF9198
:102AF0001F910F91FF90EF90BF90AF909F908F909C
:102B00000895695CDECF0F931F93CF93DF93EC01A1
:102B10000E9428158C0166E571E0CE010E942815FF
:102B2000800F911FDF91CF911F910F9108954F92C8
:102B30005F926F927F928F929F92AF92BF92EF922D
:102B4000FF920F931F93CF93DF93EC014A015B0138
:102B5000E22EAB019401CB01B4010E94112269E580
:102B600071E0811126C024013501E89477F82FEF38
:102B70003FEF4FE75FE7C301B2010E9411228111CD
:102B80000CC02FEF3FEF4FE75FE7C301B2010E9498
:102B900047206DE571E0181664F02FEF3FEF4FE727
:102BA0005FE4C501B4010E949F2118169CF461E600
:102BB00071E0CE01DF91CF911F910F91FF90EF90C7
:102BC000BF90AF909F908F907F906F905F904F904D
:102BD0000C9428152FEF3FEF4FE75FECC501B401D0
:102BE0000E94472087FDE3CF20E030E0A901C50126
:102BF000B4010E94472010E000E087FF0DC0E8818B
:102C0000F9810190F081E02D6DE2CE0109958C01F2
:102C1000B7FAB094B7F8B094FE2C712C60E070E075
:102C200080E09FE37E1440F420E030E040E251E495
:102C30000E944C207394F6CFA50194010E94DB1FE3
:102C40004B015C010E94BE202B013C012AE0BC012B
:102C5000A201CE010E943715080F191FEE20F1F1D5
:102C6000C301B2010E94ED209B01AC01C501B4017A
:102C70000E94DA1F4B015C01E881F9810190F0812B
:102C8000E02D6EE2CE010995080F191FFA948FEF1F
:102C9000F81621F120E030E040E251E4C501B40132
:102CA0000E94A4212B013C010E94BE204B01B12CAB
:102CB000A12C2AE0B501A401CE010E943715080F0E
:102CC000191FC501B4010E94ED209B01AC01C30195
:102CD000B2010E94DA1F4B015C01D8CFC801DF911D
:102CE000CF911F910F91FF90EF90BF90AF909F9069
:102CF0008F907F906F905F904F9008950C9428155F
:102D000085ED8093BC0080913B0290913C02A091A4
:102D10003D02B0913E020796A11DB11D23E0B6957C
:102D2000A795979587952A95D1F72091BC0024FD0A
:102D300003C010928402089540913B0250913C02DE
:102D400060913D0270913E02452B462B472B69F363
:102D50000097A105B10541F02AE22A95F1F700C0DC
:102D60000197A109B109E1CF80913A020C940912AF
:102D70001F920F920FB60F9211242F933F938F93B0
:102D80009F93AF93BF938091B6029091B702A091A9
:102D9000B802B091B9023091B10223E0230F2D3770
:102DA00058F50196A11DB11D2093B1028093B60282
:102DB0009093B702A093B802B093B9028091B20287
:102DC0009091B302A091B402B091B5020196A11DF9
:102DD000B11D8093B2029093B302A093B402B0935A
:102DE000B502BF91AF919F918F913F912F910F901D
:102DF0000FBE0F901F90189526E8230F0296A11D75
:102E0000B11DD2CF1F920F920FB60F9211242F93A4
:102E10003F934F935F936F937F938F939F93AF9362
:102E2000BF93EF93FF938EEB92E00E944F07FF91C9
:102E3000EF91BF91AF919F918F917F916F915F9132
:102E40004F913F912F910F900FBE0F901F901895AB
:102E50001F920F920FB60F9211242F938F939F936F
:102E6000EF93FF93E091CE02F091CF028081E09149
:102E7000D402F091D50282FD1BC090818091D702CF
:102E80008F5F8F732091D802821741F0E091D702B3
:102E9000F0E0E254FD4F958F8093D702FF91EF91C0
:102EA0009F918F912F910F900FBE0F901F901895AB
:102EB0008081F4CF1F920F920FB60F9211242F939F
:102EC0003F934F935F936F937F938F939F93AF93B2
:102ED000BF93EF93FF938091B900887F803609F408
:102EE0004AC0F0F5883209F4A7C018F5803109F41A
:102EF0009BC0B8F4882309F4F9C0883009F494C061
:102F0000FF91EF91BF91AF919F918F917F916F91C1
:102F10005F914F913F912F910F900FBE0F901F9097
:102F20001895883109F488C0803251F78093830264
:102F300014C0803409F49DC040F48033B9F3883361
:102F4000F9F68093830285ECB0C0803509F485C022
:102F5000883509F496C0883499F60E948016D0CF3F
:102F6000883909F48CC038F5883729F050F4883650
:102F700011F0803729F683E0809384021092820258
:102F800057C0883809F47BC0803919F0803809F0BF
:102F9000B7CF80918202803208F071C0E091820246
:102FA00081E08E0F809382028091BB00F0E0EE59A9
:102FB000FD4F80833DC0803B39F0E0F4803A09F456
:102FC00079C0883A09F09CCF84E080938402109203
:102FD000610210926002E091AD02F091AE0209959B
:102FE0008091600281110FC081E080936002109295
:102FF000400209C0803C09F4A6CF883C09F4A3CF65
:10300000883B09F07DCFE091610281E08E0F8093D3
:103010006102F0E0E05CFD4F80818093BB00909105
:1030200061028091600229C08091A9028093BB0057
:1030300085EC8093BC0064CF9091A8028091A70298
:10304000981758F5E091A80281E08E0F8093A802AE
:10305000F0E0E957FD4F8081E9CFE091A80281E0DF
:103060008E0F8093A8028091BB00F0E0E957FD4FDE
:1030700080839091A8028091A7029817C8F285E8F2
:10308000D8CFE091A80281E08E0F8093A8028091B2
:10309000BB00F0E0E957FD4F8083809186028111EB
:1030A0005CCF81E08093850284EA8093BC0010921B
:1030B000840226CF85EC8093BC001092840280911C
:1030C0008202803230F4E0918202F0E0EE59FD4F4E
:1030D00010826091820270E0E091AB02F091AC024C
:1030E00082E692E00995109282020ACF1092830242
:1030F00034CFEEEBF2E01382128248EE53E060E050
:1031000070E044835583668377838AE091E09183FE
:10311000808385EC90E09587848784EC90E09787A6
:10312000868780EC90E0918B808B81EC90E0938B94
:10313000828B82EC90E0958B848B86EC90E0978B71
:10314000868B118E128E138E148EA1E8B3E0139627
:103150001C921E92129714964D935D936D937C93DF
:1031600017978CE191E011969C938E93EDE8F3E034
:103170001382128220E830E03583248380E490E0DB
:10318000978386833187208793878287168A15865F
:1031900014861786168681E0858B848B2FEF3FEF90
:1031A000338B228B318B208B878B108E128E118E5E
:1031B0008EE291E091838083148E138EB68FA58F5B
:1031C00010A2178E8FEF84A385A386A387A380A761
:1031D00080E89AE1A6E0B0E085AB96ABA7ABB0AFD4
:1031E00080EA96E8A1E0B0E081AF92AFA3AFB4AFC0
:1031F00080E586AF17AEAEE6B3E082E015968C931D
:10320000159786E116968C931697E7E7FAE0E49116
:103210001796EC931797E3E6FAE0E4911896EC938F
:10322000189740E85EE360E070E01D964D935D9373
:103230006D937C935097ABE5B3E093E015969C9328
:10324000159716968C931697E8E7FAE0E49117968F
:10325000EC931797E4E6FAE0E4911896EC9318974C
:103260001D964D935D936D937C9350970895CF93E6
:10327000DF93CDB7DEB760970FB6F894DEBF0FBE11
:10328000CDBF789484B5826084BD84B5816084BDEF
:1032900085B5826085BD85B5816085BD80916E00F4
:1032A000816080936E001092810080918100826025
:1032B0008093810080918100816080938100809162
:1032C00080008160809380008091B1008460809351
:1032D000B1008091B00081608093B00080917A004D
:1032E000846080937A0080917A00826080937A0073
:1032F00080917A00816080937A0080917A00806862
:1033000080937A001092C100E091CE02F091CF023A
:1033100082E08083E091CA02F091CB021082E091BA
:10332000CC02F091CD028FEC80831092D602E09116
:10333000D202F091D30286E08083E091D002F09136
:10334000D102808180618083E091D002F091D1022E
:10335000808188608083E091D002F091D1028081E9
:1033600080688083E091D002F091D10280818F7DCE
:10337000808362E0809173030E9435062FB7F89432
:103380008091B6029091B702A091B802B091B902B3
:103390002FBF805D9740A109B10980937703909377
:1033A0007803A0937903B0937A0327E320938003F3
:1033B00062E0809160030E9435062FB7F8948091F7
:1033C000B6029091B702A091B802B091B9022FBF96
:1033D000805D9740A109B1098093640390936503D0
:1033E000A0936603B093670337E330936D03809136
:1033F000AC039091AD03892B41F52091930330915B
:103400009403C901079697FD0796B3E095958795B4
:10341000BA95E1F72091910330919203AC01429F5C
:10342000C001439F900D529F900D11240E942322B2
:103430009093AD038093AC03892B39F465E671E07A
:103440008EEB92E00E948315FFCF0E94061520911B
:103450009303309194038091910390919203B90169
:10346000213231050CF490C36054710977FF02C01A
:103470006F5F7F4F759567958255910997FD01960E
:1034800000E410E022E530E044E757E095958795A9
:103490000E94B51082E08093AF038091AA039091BF
:1034A000AB03892B09F483C38CE38093AE031092A2
:1034B000B0021092AF021092BB021092BA020E94A8
:1034C000EB118FEC96E09093AE028093AD0280ED0D
:1034D00096E09093AC028093AB028091B50387FD98
:1034E0001EC061E00E94350661E08091B5030E9434
:1034F000E90561E070E080E090E00E949D0660E0F8
:103500008091B5030E94E9056AE070E080E090E0F8
:103510000E949D0661E08091B5030E94E9058091BB
:10352000AA039091AB03892B09F402C42091C20332
:103530003091C3034091C4035091C50360E074E22D
:1035400084EF90E00E94A91F2051310941095109DF
:1035500056954795379527952093B80064E080E904
:1035600095E00E9496136091930361508DE893E07B
:103570000E944B1464E08CE895E00E9496138091C1
:10358000AF0360E1813009F064E18DE893E00E94CF
:103590004B1464E088E895E00E9496138FE88093CE
:1035A000CA0380919103909192038038910509F0AC
:1035B000D8C380919303909194038034910509F0CE
:1035C000E5C38091AF03813009F0C9C38FE98093CF
:1035D000CA0392E199836AED8DE893E00E944B144F
:1035E00069818DE893E00E944B1461E88DE893E0D7
:1035F0000E944B146091CA038DE893E00E944B1423
:1036000069ED8DE893E00E944B148091AF0362E274
:10361000813009F061EF8DE893E00E944B1466E081
:1036200082E895E00E9496138091AA039091AB03E3
:10363000892B09F4B4C32091C6033091C70340918C
:10364000C8035091C90360E074E284EF90E00E94E7
:10365000A91F2051310941095109569547953795C0
:1036600027952093B8000E94061581E08093A1035E
:103670008093A20381E090E09093A00380939F0346
:1036800090939E0380939D03E0E02E2EE0E03E2E7B
:1036900011E08EE693E00E941808412C512C70EC4A
:1036A000672E7FE7772E882331F08EE693E00E9425
:1036B00072052B013C018EE693E00E9424096D8384
:1036C0007E838F8398878BE593E00E941808882378
:1036D00009F46FC38BE593E00E94720569837A83D6
:1036E0008B839C838BE593E00E94240969877A870A
:1036F0008B879C878EE00E94660628EF31E1DC0113
:103700000E9416222FEF33E040E050E00E948A1F13
:10371000CA01B90160577E4F8F4F9F4F0E94EF2023
:103720006D877E878F87988B8FE00E946606BC012D
:10373000990F880B990B0E94EF2020E030E040EABF
:1037400050E40E94A42120E030EC4FE754E40E94B2
:103750004C2023E333E343E35FE30E94DA1F2AE0D4
:1037600037ED43EA5BE30E944C204B015C0120E013
:1037700030E0A9010E94472087FF03C0812C912CD3
:10378000540180E10E946606BC01990F880B990BD9
:103790000E94EF2020E030E040EA50E40E94A421A3
:1037A00020E030EC4FE754E40E944C2023E333E365
:1037B00043E35FE30E94DA1F2AE037ED43EA5BE36D
:1037C0000E944C206B017C0120E030E0A9010E94A6
:1037D000472087FF03C0C12CD12C76016DE771E033
:1037E0008EEB92E00E9483156AE871E08EEB92E026
:1037F0000E947E1622E030E0B301A2018EEB92E03F
:103800000E9497156FE871E08EEB92E00E947E16A1
:1038100064E971E08EEB92E00E947E1622E030E0D7
:103820004D815E816F8178858EEB92E00E949715C5
:1038300069E971E08EEB92E00E9483156CE971E01A
:103840008EEB92E00E94831569EA71E08EEB92E0C4
:103850000E947E1622E030E049815A816B817C8192
:103860008EEB92E00E9497156FE871E08EEB92E08C
:103870000E947E166EEA71E08EEB92E00E947E1648
:1038800022E030E049855A856B857C858EEB92E09D
:103890000E94971569E971E08EEB92E00E94831512
:1038A00063EB71E08EEB92E00E947E1622E030E046
:1038B0004D855E856F8578898EEB92E00E94971525
:1038C00069EB71E08EEB92E00E9483156EEB71E084
:1038D0008EEB92E00E947E1622E030E0B501A4015A
:1038E0008EEB92E00E94971566EC71E08EEB92E011
:1038F0000E9483156DEC71E08EEB92E00E947E16C3
:1039000022E030E0B701A6018EEB92E00E9497150D
:1039100066EC71E08EEB92E00E9483150E94061522
:1039200010929A031092990310929C0310929B0399
:1039300065ED71E08DE893E00E947E1621E030E0B5
:10394000B301A2018DE893E00E94971569ED71E043
:103950008DE893E00E947E1630E020E04D815E818C
:103960006F8178858DE893E00E9497156AE971E090
:103970008DE893E00E9483156EED71E08DE893E091
:103980000E947E1621E030E049815A816B817C8162
:103990008DE893E00E94971562EE71E08DE893E068
:1039A0000E947E1630E020E049855A856B857C8533
:1039B0008DE893E00E9497156AE971E08DE893E045
:1039C0000E94831567EE71E08DE893E00E947E16F9
:1039D00030E020E04D855E856F8578898DE893E045
:1039E0000E9497156AEB71E08DE893E00E948315C1
:1039F0006CEE71E08DE893E00E947E1630E020E0EE
:103A0000B501A4018DE893E00E94971567EC71E081
:103A10008DE893E00E94831563EF71E08DE893E0F9
:103A20000E947E1630E020E0B701A6018DE893E009
:103A30000E94971567EC71E08DE893E00E94831572
:103A40008091AA039091AB03892B09F4BBC120910B
:103A5000C2033091C3034091C4035091C50360E099
:103A600074E284EF90E00E94A91F205131094109BE
:103A7000510956954795379527952093B80065E0ED
:103A800084E39AE00E9496136091910361508DE85F
:103A900093E00E944B142091930330919403C90149
:103AA000079697FD079633E0959587953A95E1F748
:103AB0002091910330919203829F7001839FF00CBB
:103AC000929FF00C11244091AC035091AD035A83A6
:103AD00049838091AA039091AB03E40EF51E0097F1
:103AE00009F4BAC12091AE031093BD022093BC0229
:103AF0001092BB021092BA02DC01ED91FC91019090
:103B0000F081E02D60E40995CC24C394D12C809100
:103B1000AA039091AB03E981FA81EE16FF0609F43E
:103B200068C1F0E2CF16D104D8F00E94AF128091A4
:103B3000AA039091AB032091AE031093BD02209392
:103B4000BC021092BB021092BA02DC01ED91FC9112
:103B50000190F081E02D60E40995CC24C394D12C30
:103B60008091AA039091AB03E981FA816191FA8374
:103B7000E983DC01ED91FC910190F081E02D099544
:103B8000BFEFCB1ADB0AC3CF6052710977FF02C0C7
:103B90006F5F7F4F759567958357910997FD0196E4
:103BA00000E210E023E730E044E955E06FCC61E04B
:103BB0008091B3030E94350661E08091B4030E94B6
:103BC00035068091B303082E000C990BFC01EF59C8
:103BD000F54FE491F0E0EE0FFF1FED5BF54F2591FF
:103BE00034913093BB032093BA03FC01EB58F54F9B
:103BF000E491E093C0038091B403082E000C990B6C
:103C0000FC01EF59F54FE491F0E0EE0FFF1FED5B83
:103C1000F54FA591B491B093BD03A093BC03FC01F3
:103C2000EB58F54FE491E093C1038C91E82BEC93B2
:103C30008091A8039091A903892B09F436C05FB73E
:103C40005983F8948091AA02811127C0EBE6FAE02B
:103C50008491EFE7FAE09491E82FF0E0EE0FFF1F78
:103C6000E75CF54FA591B491EC91E92321F461E073
:103C70008AE00E94E90561E08AE00E9435068CB581
:103C800080618CBD8CB580648CBD61E08DE00E944C
:103C9000350661E08BE00E9435068091AA028F5FB5
:103CA0008093AA0289818FBF18CC61E08091B10313
:103CB0000E94350661E08091B2030E943506809132
:103CC000B103082E000C990BFC01EF59F54FE4915C
:103CD000F0E0EE0FFF1FED5BF54F2591349130932F
:103CE000B7032093B603FC01EB58F54FE491E09342
:103CF000BE038091B203082E000C990BFC01EF5912
:103D0000F54FE491F0E0EE0FFF1FED5BF54FA5914D
:103D1000B491B093B903A093B803FC01EB58F54FED
:103D2000E491E093BF038C91E095E823EC93D5CB2D
:103D30008091A8039091A903892B31F08091CB0346
:103D40009091CC030E94CB0BE091BC03F091BD039A
:103D500090818091C103809589238083FFCB8FEC74
:103D600036CC80369105A9F4809193039091940309
:103D7000409791F48091AF03813031F480E18093DA
:103D8000CA03A2E0A98327CC8FEAF9CFB2E0B983B6
:103D900022CCE2E0E9831FCCF2E0F9831CCCE09175
:103DA000BC03F091BD0380819091C103892B808376
:103DB0005ACC20E030E040EC5FE729833A834B8324
:103DC0005C8390CC8091A8039091A903892B31F05A
:103DD0008091CB039091CC030E94CB0BE091BC036C
:103DE000F091BD0390818091C103809589238083E8
:103DF00046CE0E94AF128091AA039091AB03892B0B
:103E000009F46FC02091C6033091C7034091C803E5
:103E10005091C90360E074E284EF90E00E94A91F12
:103E200020513109410951095695479537952795F4
:103E30002093B80060ED77E080E090E00E949D065E
:103E40002114310409F425CC0E943B07882309F48E
:103E500020CC0E9400001DCCE091BA03F091BB037E
:103E600080819091C003892B8083E981FA81EE15CE
:103E7000FF0509F28191FA83E9832091A80330912B
:103E8000A903232B19F00E94C40BEFCF28E030E0E8
:103E900040E8E091B603F091B7039091BE03582F2C
:103EA0005423D9F05081952B9083E091B803F09181
:103EB000B90390815091BF03952B9083E091B80393
:103EC000F091B90350819091BF0390959523908311
:103ED000469521503109E9F6C8CF50819095952338
:103EE000E3CFE091BC03F091BD0380819091C103C9
:103EF000892B80839FCF8EE291E090938E038093F5
:103F00008D038091AC039091AD03009711F00C9458
:103F1000BF220895052E97FB1EF400940E94A11F56
:103F200057FD07D00E94A91F07FC03D04EF40C9444
:103F3000A11F50954095309521953F4F4F4F5F4FB2
:103F4000089590958095709561957F4F8F4F9F4F05
:103F50000895A1E21A2EAA1BBB1BFD010DC0AA1FCA
:103F6000BB1FEE1FFF1FA217B307E407F50720F0E2
:103F7000A21BB30BE40BF50B661F771F881F991F5D
:103F80001A9469F760957095809590959B01AC01A6
:103F9000BD01CF010895A29FB001B39FC001A39FAF
:103FA000700D811D1124911DB29F700D811D112472
:103FB000911D08955058BB27AA270E94F21F0C9408
:103FC00065210E94572138F00E945E2120F039F4CB
:103FD0009F3F19F426F40C9454210EF4E095E7FB6E
:103FE0000C944E21E92F0E94762158F3BA176207EC
:103FF00073078407950720F079F4A6F50C949821AF
:104000000EF4E0950B2EBA2FA02D0B01B9019001F3
:104010000C01CA01A0011124FF27591B99F0593F37
:1040200050F4503E68F11A16F040A22F232F342F7F
:104030004427585FF3CF469537952795A795F040CD
:104040005395C9F77EF41F16BA0B620B730B840BE2
:10405000BAF09150A1F0FF0FBB1F661F771F881F9A
:10406000C2F70EC0BA0F621F731F841F48F48795F2
:1040700077956795B795F7959E3F08F0B0CF9395E4
:10408000880F08F09927EE0F9795879508950E945D
:104090002A2108F481E008950E9460200C94652193
:1040A0000E945E2158F00E94572140F029F45F3FA2
:1040B00029F00C944E2151110C9499210C94542107
:1040C0000E94762168F39923B1F3552391F3951B50
:1040D000550BBB27AA2762177307840738F09F5F29
:1040E0005F4F220F331F441FAA1FA9F335D00E2E96
:1040F0003AF0E0E832D091505040E695001CCAF703
:104100002BD0FE2F29D0660F771F881FBB1F2617C5
:1041100037074807AB07B0E809F0BB0B802DBF019C
:10412000FF2793585F4F3AF09E3F510578F00C946B
:104130004E210C9499215F3FE4F3983ED4F3869589
:1041400077956795B795F7959F5FC9F7880F911D8C
:104150009695879597F90895E1E0660F771F881F78
:10416000BB1F621773078407BA0720F0621B730B2B
:10417000840BBA0BEE1F88F7E09508950E947E210C
:1041800088F09F5798F0B92F9927B751B0F0E1F018
:10419000660F771F881F991F1AF0BA95C9F714C0C8
:1041A000B13091F00E949821B1E008950C949821CB
:1041B000672F782F8827B85F39F0B93FCCF3869501
:1041C00077956795B395D9F73EF49095809570955E
:1041D00061957F4F8F4F9F4F0895E89409C097FBDB
:1041E0003EF490958095709561957F4F8F4F9F4FCE
:1041F0009923A9F0F92F96E9BB279395F695879512
:1042000077956795B795F111F8CFFAF4BB0F11F4D4
:1042100060FF1BC06F5F7F4F8F4F9F4F16C088237B
:1042200011F096E911C0772321F09EE8872F762FB1
:1042300005C0662371F096E8862F70E060E02AF0F2
:104240009A95660F771F881FDAF7880F96958795DE
:1042500097F90895990F0008550FAA0BE0E8FEEFB3
:1042600016161706E807F907C0F012161306E4073A
:10427000F50798F0621B730B840B950B39F40A2633
:1042800061F0232B242B252B21F408950A2609F411
:10429000A140A6958FEF811D811D089597F99F6715
:1042A00080E870E060E008959FEF80EC08950024BE
:1042B0000A941616170618060906089500240A948B
:1042C00012161306140605060895092E0394000C11
:1042D00011F4882352F0BB0F40F4BF2B11F460FFA0
:1042E00004C06F5F7F4F8F4F9F4F089557FD9058C9
:1042F000440F551F59F05F3F71F04795880F97FBAA
:10430000991F61F09F3F79F0879508951216130663
:104310001406551FF2CF4695F1DF08C01616170692
:104320001806991FF1CF86957105610508940895C7
:10433000E894BB2766277727CB0197F908950E9459
:104340002A2108F48FEF08950E94B7210C9465216B
:104350000E94572138F00E945E2120F0952311F031
:104360000C944E210C94542111240C9499210E94F8
:10437000762170F3959FC1F3950F50E0551F629F12
:10438000F001729FBB27F00DB11D639FAA27F00DAE
:10439000B11DAA1F649F6627B00DA11D661F829FD5
:1043A0002227B00DA11D621F739FB00DA11D621FBA
:1043B000839FA00D611D221F749F3327A00D611DD7
:1043C000231F849F600D211D822F762F6A2F1124B9
:1043D0009F5750409AF0F1F088234AF0EE0FFF1FEC
:1043E000BB1F661F771F881F91505040A9F79E3F43
:1043F000510580F00C944E210C9499215F3FE4F319
:10440000983ED4F3869577956795B795F795E79598
:104410009F5FC1F7FE2B880F911D9695879597F9A1
:1044200008950E942A21880B990B08950E94CB1FA2
:10443000B7FF0895821B930B0895EE0FFF1F0590A1
:10444000F491E02D09940F931F93CF93DF93823063
:10445000910510F482E090E0E091CF03F091D00359
:1044600030E020E0B0E0A0E0309799F4211531056C
:1044700009F44AC0281B390B24303105D8F58A814C
:104480009B816115710589F1FB0193838283FE0194
:1044900011C0408151810281138148175907E0F012
:1044A0004817590799F4109761F012960C931297D8
:1044B00013961C933296CF01DF91CF911F910F91EC
:1044C00008950093CF031093D003F4CF2115310545
:1044D00051F04217530738F0A901DB019A01BD01E1
:1044E000DF01F801C1CFEF01F9CF9093D0038093A2
:1044F000CF03CDCFFE01E20FF31F819391932250A2
:10450000310939832883D7CF2091CD033091CE0351
:10451000232B41F420910201309103013093CE030B
:104520002093CD0320910001309101012115310527
:1045300041F42DB73EB74091040150910501241B71
:10454000350BE091CD03F091CE03E217F307A0F411
:104550002E1B3F0B2817390778F0AC014E5F5F4FD9
:104560002417350748F04E0F5F1F5093CE0340933A
:10457000CD03819391939FCFF0E0E0E09CCFCF9368
:10458000DF930097E9F0FC01329713821282A09129
:10459000CF03B091D003ED0130E020E01097A1F4FB
:1045A00020813181820F931F2091CD033091CE0362
:1045B0002817390709F061C0F093CE03E093CD03CB
:1045C000DF91CF910895EA01CE17DF07E8F54A8120
:1045D0005B819E0141155105B1F7E901FB83EA8337
:1045E00049915991C40FD51FEC17FD0761F48081E3
:1045F00091810296840F951FE901998388838281B6
:1046000093819B838A83F0E0E0E012968D919C91E8
:1046100013970097B9F52D913C911197CD01029612
:10462000820F931F2091CD033091CE0328173907B5
:1046300039F6309751F51092D0031092CF03B09312
:10464000CE03A093CD03BCCFD383C28340815181DD
:10465000840F951FC817D90761F44E5F5F4F88819B
:104660009981480F591F518340838A819B8193838D
:1046700082832115310509F0B0CFF093D003E09388
:10468000CF039ECFFD01DC01C0CF13821282D7CFB2
:1046900081E090E0F8940C945423DC0101C06D9308
:1046A00041505040E0F7089515E0C6E4D5E004C05D
:1046B000FE010E941D222196C734D107C9F7F89444
:1046C000FFCF0000D1038000000000007107D10679
:1046D000FE06BE072F070D0721070000000080120D
:1046E0005312031571054C1239122A1200000000F2
:1046F000090ED1060315C311140B7105AE108610F7
:10470000A210961016117105CF0BAD14840ACD0AB4
:10471000CF0FB20F3A0FDB0E0D0A006E616E00690B
:104720006E66006F7666004B68C3B46E672074C314
:10473000AC6D207468E1BAA579204F4C4544003D2A
:104740003D3D2044485431203D3D3D0054313A2008
:104750000020432C200048313A20002025003D3D18
:104760003D2044485432203D3D3D0054323A200023
:1047700048323A2000434F323A20002070706D00DA
:10478000504D322E353A20002075672F6D33005082
:104790004D3130203A200054313A002048313A005F
:1047A00054323A002048323A00434F323A00504DDA
:0C47B000322E353A00504D3130203A00D6
:107E0000112484B714BE81FFF0D085E080938100F7
:107E100082E08093C00088E18093C10086E0809377
:107E2000C20080E18093C4008EE0C9D0259A86E02C
:107E300020E33CEF91E0309385002093840096BBD3
:107E4000B09BFECF1D9AA8958150A9F7CC24DD24C4
:107E500088248394B5E0AB2EA1E19A2EF3E0BF2EE7
:107E6000A2D0813461F49FD0082FAFD0023811F036
:107E7000013811F484E001C083E08DD089C08234E0
:107E800011F484E103C0853419F485E0A6D080C0E4
:107E9000853579F488D0E82EFF2485D0082F10E0AE
:107EA000102F00270E291F29000F111F8ED06801E7
:107EB0006FC0863521F484E090D080E0DECF843638
:107EC00009F040C070D06FD0082F6DD080E0C81688
:107ED00080E7D80618F4F601B7BEE895C0E0D1E017
:107EE00062D089930C17E1F7F0E0CF16F0E7DF06D8
:107EF00018F0F601B7BEE89568D007B600FCFDCFD4
:107F0000A601A0E0B1E02C9130E011968C91119780
:107F100090E0982F8827822B932B1296FA010C0160
:107F200087BEE89511244E5F5F4FF1E0A038BF0790
:107F300051F7F601A7BEE89507B600FCFDCF97BE46
:107F4000E89526C08437B1F42ED02DD0F82E2BD052
:107F50003CD0F601EF2C8F010F5F1F4F84911BD097
:107F6000EA94F801C1F70894C11CD11CFA94CF0C13
:107F7000D11C0EC0853739F428D08EE10CD085E9AC
:107F80000AD08FE07ACF813511F488E018D01DD067
:107F900080E101D065CF982F8091C00085FFFCCF94
:107FA0009093C60008958091C00087FFFCCF809118
:107FB000C00084FD01C0A8958091C6000895E0E648
:107FC000F0E098E1908380830895EDDF803219F02E
:107FD00088E0F5DFFFCF84E1DECF1F93182FE3DFCA
:107FE0001150E9F7F2DF1F91089580E0E8DFEE27F6
:047FF000FF270994CA
:027FFE00040479
:00000001FF
